{
  "_format": "hh-sol-artifact-1",
  "contractName": "AgriTrace",
  "sourceName": "contracts/AgriTrace.sol",
  "abi": [
    {
      "inputs": [],
      "stateMutability": "nonpayable",
      "type": "constructor"
    },
    {
      "anonymous": false,
      "inputs": [
        {
          "indexed": true,
          "internalType": "uint256",
          "name": "productId",
          "type": "uint256"
        },
        {
          "indexed": false,
          "internalType": "uint256",
          "name": "newPrice",
          "type": "uint256"
        }
      ],
      "name": "PriceUpdated",
      "type": "event"
    },
    {
      "anonymous": false,
      "inputs": [
        {
          "indexed": true,
          "internalType": "uint256",
          "name": "productId",
          "type": "uint256"
        },
        {
          "indexed": true,
          "internalType": "address",
          "name": "farmer",
          "type": "address"
        },
        {
          "indexed": false,
          "internalType": "string",
          "name": "name",
          "type": "string"
        }
      ],
      "name": "ProductRegistered",
      "type": "event"
    },
    {
      "anonymous": false,
      "inputs": [
        {
          "indexed": true,
          "internalType": "uint256",
          "name": "productId",
          "type": "uint256"
        },
        {
          "indexed": true,
          "internalType": "address",
          "name": "from",
          "type": "address"
        },
        {
          "indexed": true,
          "internalType": "address",
          "name": "to",
          "type": "address"
        },
        {
          "indexed": false,
          "internalType": "uint256",
          "name": "quantity",
          "type": "uint256"
        }
      ],
      "name": "ProductTransferred",
      "type": "event"
    },
    {
      "anonymous": false,
      "inputs": [
        {
          "indexed": true,
          "internalType": "uint256",
          "name": "productId",
          "type": "uint256"
        },
        {
          "indexed": false,
          "internalType": "string",
          "name": "newGrade",
          "type": "string"
        }
      ],
      "name": "QualityUpdated",
      "type": "event"
    },
    {
      "anonymous": false,
      "inputs": [
        {
          "indexed": true,
          "internalType": "address",
          "name": "wallet",
          "type": "address"
        },
        {
          "indexed": false,
          "internalType": "enum AgriTrace.StakeholderType",
          "name": "role",
          "type": "uint8"
        },
        {
          "indexed": false,
          "internalType": "string",
          "name": "name",
          "type": "string"
        }
      ],
      "name": "StakeholderRegistered",
      "type": "event"
    },
    {
      "inputs": [],
      "name": "getAllProducts",
      "outputs": [
        {
          "components": [
            {
              "internalType": "uint256",
              "name": "id",
              "type": "uint256"
            },
            {
              "internalType": "string",
              "name": "name",
              "type": "string"
            },
            {
              "internalType": "string",
              "name": "variety",
              "type": "string"
            },
            {
              "internalType": "address",
              "name": "farmer",
              "type": "address"
            },
            {
              "internalType": "string",
              "name": "farmLocation",
              "type": "string"
            },
            {
              "internalType": "uint256",
              "name": "harvestDate",
              "type": "uint256"
            },
            {
              "internalType": "uint256",
              "name": "quantity",
              "type": "uint256"
            },
            {
              "internalType": "string",
              "name": "qualityGrade",
              "type": "string"
            },
            {
              "internalType": "bool",
              "name": "isOrganic",
              "type": "bool"
            },
            {
              "internalType": "uint256",
              "name": "currentPrice",
              "type": "uint256"
            },
            {
              "internalType": "enum AgriTrace.ProductStatus",
              "name": "status",
              "type": "uint8"
            },
            {
              "internalType": "string",
              "name": "ipfsHash",
              "type": "string"
            }
          ],
          "internalType": "struct AgriTrace.Product[]",
          "name": "",
          "type": "tuple[]"
        }
      ],
      "stateMutability": "view",
      "type": "function"
    },
    {
      "inputs": [
        {
          "internalType": "uint256",
          "name": "_productId",
          "type": "uint256"
        }
      ],
      "name": "getProduct",
      "outputs": [
        {
          "components": [
            {
              "internalType": "uint256",
              "name": "id",
              "type": "uint256"
            },
            {
              "internalType": "string",
              "name": "name",
              "type": "string"
            },
            {
              "internalType": "string",
              "name": "variety",
              "type": "string"
            },
            {
              "internalType": "address",
              "name": "farmer",
              "type": "address"
            },
            {
              "internalType": "string",
              "name": "farmLocation",
              "type": "string"
            },
            {
              "internalType": "uint256",
              "name": "harvestDate",
              "type": "uint256"
            },
            {
              "internalType": "uint256",
              "name": "quantity",
              "type": "uint256"
            },
            {
              "internalType": "string",
              "name": "qualityGrade",
              "type": "string"
            },
            {
              "internalType": "bool",
              "name": "isOrganic",
              "type": "bool"
            },
            {
              "internalType": "uint256",
              "name": "currentPrice",
              "type": "uint256"
            },
            {
              "internalType": "enum AgriTrace.ProductStatus",
              "name": "status",
              "type": "uint8"
            },
            {
              "internalType": "string",
              "name": "ipfsHash",
              "type": "string"
            }
          ],
          "internalType": "struct AgriTrace.Product",
          "name": "",
          "type": "tuple"
        }
      ],
      "stateMutability": "view",
      "type": "function"
    },
    {
      "inputs": [
        {
          "internalType": "uint256",
          "name": "_productId",
          "type": "uint256"
        }
      ],
      "name": "getProductOwnershipHistory",
      "outputs": [
        {
          "internalType": "address[]",
          "name": "",
          "type": "address[]"
        }
      ],
      "stateMutability": "view",
      "type": "function"
    },
    {
      "inputs": [
        {
          "internalType": "uint256",
          "name": "_productId",
          "type": "uint256"
        }
      ],
      "name": "getProductTransactions",
      "outputs": [
        {
          "components": [
            {
              "internalType": "uint256",
              "name": "id",
              "type": "uint256"
            },
            {
              "internalType": "uint256",
              "name": "productId",
              "type": "uint256"
            },
            {
              "internalType": "address",
              "name": "from",
              "type": "address"
            },
            {
              "internalType": "address",
              "name": "to",
              "type": "address"
            },
            {
              "internalType": "uint256",
              "name": "quantity",
              "type": "uint256"
            },
            {
              "internalType": "uint256",
              "name": "price",
              "type": "uint256"
            },
            {
              "internalType": "uint256",
              "name": "timestamp",
              "type": "uint256"
            },
            {
              "internalType": "string",
              "name": "location",
              "type": "string"
            },
            {
              "internalType": "enum AgriTrace.TransactionType",
              "name": "txType",
              "type": "uint8"
            }
          ],
          "internalType": "struct AgriTrace.Transaction[]",
          "name": "",
          "type": "tuple[]"
        }
      ],
      "stateMutability": "view",
      "type": "function"
    },
    {
      "inputs": [
        {
          "internalType": "address",
          "name": "_farmer",
          "type": "address"
        }
      ],
      "name": "getProductsByFarmer",
      "outputs": [
        {
          "components": [
            {
              "internalType": "uint256",
              "name": "id",
              "type": "uint256"
            },
            {
              "internalType": "string",
              "name": "name",
              "type": "string"
            },
            {
              "internalType": "string",
              "name": "variety",
              "type": "string"
            },
            {
              "internalType": "address",
              "name": "farmer",
              "type": "address"
            },
            {
              "internalType": "string",
              "name": "farmLocation",
              "type": "string"
            },
            {
              "internalType": "uint256",
              "name": "harvestDate",
              "type": "uint256"
            },
            {
              "internalType": "uint256",
              "name": "quantity",
              "type": "uint256"
            },
            {
              "internalType": "string",
              "name": "qualityGrade",
              "type": "string"
            },
            {
              "internalType": "bool",
              "name": "isOrganic",
              "type": "bool"
            },
            {
              "internalType": "uint256",
              "name": "currentPrice",
              "type": "uint256"
            },
            {
              "internalType": "enum AgriTrace.ProductStatus",
              "name": "status",
              "type": "uint8"
            },
            {
              "internalType": "string",
              "name": "ipfsHash",
              "type": "string"
            }
          ],
          "internalType": "struct AgriTrace.Product[]",
          "name": "",
          "type": "tuple[]"
        }
      ],
      "stateMutability": "view",
      "type": "function"
    },
    {
      "inputs": [
        {
          "internalType": "address",
          "name": "_wallet",
          "type": "address"
        }
      ],
      "name": "getStakeholder",
      "outputs": [
        {
          "components": [
            {
              "internalType": "address",
              "name": "wallet",
              "type": "address"
            },
            {
              "internalType": "string",
              "name": "name",
              "type": "string"
            },
            {
              "internalType": "string",
              "name": "location",
              "type": "string"
            },
            {
              "internalType": "enum AgriTrace.StakeholderType",
              "name": "role",
              "type": "uint8"
            },
            {
              "internalType": "bool",
              "name": "isVerified",
              "type": "bool"
            },
            {
              "internalType": "uint256",
              "name": "registrationDate",
              "type": "uint256"
            }
          ],
          "internalType": "struct AgriTrace.Stakeholder",
          "name": "",
          "type": "tuple"
        }
      ],
      "stateMutability": "view",
      "type": "function"
    },
    {
      "inputs": [],
      "name": "owner",
      "outputs": [
        {
          "internalType": "address",
          "name": "",
          "type": "address"
        }
      ],
      "stateMutability": "view",
      "type": "function"
    },
    {
      "inputs": [],
      "name": "productCounter",
      "outputs": [
        {
          "internalType": "uint256",
          "name": "",
          "type": "uint256"
        }
      ],
      "stateMutability": "view",
      "type": "function"
    },
    {
      "inputs": [
        {
          "internalType": "uint256",
          "name": "",
          "type": "uint256"
        },
        {
          "internalType": "uint256",
          "name": "",
          "type": "uint256"
        }
      ],
      "name": "productOwnershipHistory",
      "outputs": [
        {
          "internalType": "address",
          "name": "",
          "type": "address"
        }
      ],
      "stateMutability": "view",
      "type": "function"
    },
    {
      "inputs": [
        {
          "internalType": "uint256",
          "name": "",
          "type": "uint256"
        },
        {
          "internalType": "uint256",
          "name": "",
          "type": "uint256"
        }
      ],
      "name": "productTransactions",
      "outputs": [
        {
          "internalType": "uint256",
          "name": "id",
          "type": "uint256"
        },
        {
          "internalType": "uint256",
          "name": "productId",
          "type": "uint256"
        },
        {
          "internalType": "address",
          "name": "from",
          "type": "address"
        },
        {
          "internalType": "address",
          "name": "to",
          "type": "address"
        },
        {
          "internalType": "uint256",
          "name": "quantity",
          "type": "uint256"
        },
        {
          "internalType": "uint256",
          "name": "price",
          "type": "uint256"
        },
        {
          "internalType": "uint256",
          "name": "timestamp",
          "type": "uint256"
        },
        {
          "internalType": "string",
          "name": "location",
          "type": "string"
        },
        {
          "internalType": "enum AgriTrace.TransactionType",
          "name": "txType",
          "type": "uint8"
        }
      ],
      "stateMutability": "view",
      "type": "function"
    },
    {
      "inputs": [
        {
          "internalType": "uint256",
          "name": "",
          "type": "uint256"
        }
      ],
      "name": "products",
      "outputs": [
        {
          "internalType": "uint256",
          "name": "id",
          "type": "uint256"
        },
        {
          "internalType": "string",
          "name": "name",
          "type": "string"
        },
        {
          "internalType": "string",
          "name": "variety",
          "type": "string"
        },
        {
          "internalType": "address",
          "name": "farmer",
          "type": "address"
        },
        {
          "internalType": "string",
          "name": "farmLocation",
          "type": "string"
        },
        {
          "internalType": "uint256",
          "name": "harvestDate",
          "type": "uint256"
        },
        {
          "internalType": "uint256",
          "name": "quantity",
          "type": "uint256"
        },
        {
          "internalType": "string",
          "name": "qualityGrade",
          "type": "string"
        },
        {
          "internalType": "bool",
          "name": "isOrganic",
          "type": "bool"
        },
        {
          "internalType": "uint256",
          "name": "currentPrice",
          "type": "uint256"
        },
        {
          "internalType": "enum AgriTrace.ProductStatus",
          "name": "status",
          "type": "uint8"
        },
        {
          "internalType": "string",
          "name": "ipfsHash",
          "type": "string"
        }
      ],
      "stateMutability": "view",
      "type": "function"
    },
    {
      "inputs": [
        {
          "internalType": "string",
          "name": "_name",
          "type": "string"
        },
        {
          "internalType": "string",
          "name": "_variety",
          "type": "string"
        },
        {
          "internalType": "string",
          "name": "_farmLocation",
          "type": "string"
        },
        {
          "internalType": "uint256",
          "name": "_quantity",
          "type": "uint256"
        },
        {
          "internalType": "string",
          "name": "_qualityGrade",
          "type": "string"
        },
        {
          "internalType": "bool",
          "name": "_isOrganic",
          "type": "bool"
        },
        {
          "internalType": "uint256",
          "name": "_price",
          "type": "uint256"
        },
        {
          "internalType": "string",
          "name": "_ipfsHash",
          "type": "string"
        }
      ],
      "name": "registerProduct",
      "outputs": [],
      "stateMutability": "nonpayable",
      "type": "function"
    },
    {
      "inputs": [
        {
          "internalType": "string",
          "name": "_name",
          "type": "string"
        },
        {
          "internalType": "string",
          "name": "_location",
          "type": "string"
        },
        {
          "internalType": "enum AgriTrace.StakeholderType",
          "name": "_role",
          "type": "uint8"
        }
      ],
      "name": "registerStakeholder",
      "outputs": [],
      "stateMutability": "nonpayable",
      "type": "function"
    },
    {
      "inputs": [
        {
          "internalType": "address",
          "name": "",
          "type": "address"
        }
      ],
      "name": "stakeholders",
      "outputs": [
        {
          "internalType": "address",
          "name": "wallet",
          "type": "address"
        },
        {
          "internalType": "string",
          "name": "name",
          "type": "string"
        },
        {
          "internalType": "string",
          "name": "location",
          "type": "string"
        },
        {
          "internalType": "enum AgriTrace.StakeholderType",
          "name": "role",
          "type": "uint8"
        },
        {
          "internalType": "bool",
          "name": "isVerified",
          "type": "bool"
        },
        {
          "internalType": "uint256",
          "name": "registrationDate",
          "type": "uint256"
        }
      ],
      "stateMutability": "view",
      "type": "function"
    },
    {
      "inputs": [],
      "name": "transactionCounter",
      "outputs": [
        {
          "internalType": "uint256",
          "name": "",
          "type": "uint256"
        }
      ],
      "stateMutability": "view",
      "type": "function"
    },
    {
      "inputs": [
        {
          "internalType": "uint256",
          "name": "_productId",
          "type": "uint256"
        },
        {
          "internalType": "address",
          "name": "_to",
          "type": "address"
        },
        {
          "internalType": "uint256",
          "name": "_quantity",
          "type": "uint256"
        },
        {
          "internalType": "uint256",
          "name": "_price",
          "type": "uint256"
        },
        {
          "internalType": "string",
          "name": "_location",
          "type": "string"
        }
      ],
      "name": "transferProduct",
      "outputs": [],
      "stateMutability": "nonpayable",
      "type": "function"
    },
    {
      "inputs": [
        {
          "internalType": "uint256",
          "name": "_productId",
          "type": "uint256"
        },
        {
          "internalType": "uint256",
          "name": "_newPrice",
          "type": "uint256"
        }
      ],
      "name": "updatePrice",
      "outputs": [],
      "stateMutability": "nonpayable",
      "type": "function"
    },
    {
      "inputs": [
        {
          "internalType": "uint256",
          "name": "_productId",
          "type": "uint256"
        },
        {
          "internalType": "string",
          "name": "_newGrade",
          "type": "string"
        }
      ],
      "name": "updateQuality",
      "outputs": [],
      "stateMutability": "nonpayable",
      "type": "function"
    },
    {
      "inputs": [
        {
          "internalType": "address",
          "name": "_stakeholder",
          "type": "address"
        }
      ],
      "name": "verifyStakeholder",
      "outputs": [],
      "stateMutability": "nonpayable",
      "type": "function"
    }
  ],
  "bytecode": "0x608060405234801561001057600080fd5b50600680546001600160a01b03191633179055600060048190556005556131598061003c6000396000f3fe608060405234801561001057600080fd5b50600436106101215760003560e01c806382367b2d116100ad578063c07cfca911610071578063c07cfca9146102b0578063d329a3e5146102d5578063ec90a7b0146102e8578063edac474c146102fb578063f04926481461030e57600080fd5b806382367b2d1461021f5780638da5cb5b146102325780639ab2dfa31461025d578063b67a103d1461027d578063b9db15b41461029057600080fd5b806348ffe775116100f457806348ffe7751461018c57806362afde25146101a15780636983d395146101c1578063732bf872146101e15780637acc0b20146101f457600080fd5b806302ee3a521461012657806314e887e8146101445780631f16653b1461015b578063259132d414610164575b600080fd5b61012e610321565b60405161013b9190612772565b60405180910390f35b61014d60055481565b60405190815260200161013b565b61014d60045481565b6101776101723660046127d4565b61073d565b60405161013b99989796959493929190612806565b61019f61019a36600461288b565b610840565b005b6101b46101af36600461288b565b61093a565b60405161013b91906128bd565b6101d46101cf36600461293e565b610af0565b60405161013b9190612957565b61019f6101ef366004612a47565b610b5c565b61020761020236600461293e565b610eb8565b60405161013b9c9b9a99989796959493929190612ab2565b61019f61022d3660046127d4565b6111d4565b600654610245906001600160a01b031681565b6040516001600160a01b03909116815260200161013b565b61027061026b36600461293e565b61130d565b60405161013b9190612b69565b61019f61028b366004612c45565b61149e565b6102a361029e36600461293e565b61162c565b60405161013b9190612cc1565b6102c36102be36600461288b565b6119ae565b60405161013b96959493929190612cd4565b61019f6102e3366004612d2e565b611b04565b61012e6102f636600461288b565b611c3b565b61019f610309366004612d85565b6120d4565b61024561031c3660046127d4565b6123ab565b6060600060045467ffffffffffffffff811115610340576103406129a4565b60405190808252806020026020018201604052801561037957816020015b61036661253d565b81526020019060019003908161035e5790505b50905060015b60045481116107375760008181526020818152604091829020825161018081019093528054835260018101805491928401916103ba90612e7b565b80601f01602080910402602001604051908101604052809291908181526020018280546103e690612e7b565b80156104335780601f1061040857610100808354040283529160200191610433565b820191906000526020600020905b81548152906001019060200180831161041657829003601f168201915b5050505050815260200160028201805461044c90612e7b565b80601f016020809104026020016040519081016040528092919081815260200182805461047890612e7b565b80156104c55780601f1061049a576101008083540402835291602001916104c5565b820191906000526020600020905b8154815290600101906020018083116104a857829003601f168201915b505050918352505060038201546001600160a01b031660208201526004820180546040909201916104f590612e7b565b80601f016020809104026020016040519081016040528092919081815260200182805461052190612e7b565b801561056e5780601f106105435761010080835404028352916020019161056e565b820191906000526020600020905b81548152906001019060200180831161055157829003601f168201915b50505050508152602001600582015481526020016006820154815260200160078201805461059b90612e7b565b80601f01602080910402602001604051908101604052809291908181526020018280546105c790612e7b565b80156106145780601f106105e957610100808354040283529160200191610614565b820191906000526020600020905b8154815290600101906020018083116105f757829003601f168201915b5050509183525050600882015460ff9081161515602083015260098301546040830152600a83015460609092019116600481111561065457610654612650565b600481111561066557610665612650565b8152602001600b8201805461067990612e7b565b80601f01602080910402602001604051908101604052809291908181526020018280546106a590612e7b565b80156106f25780601f106106c7576101008083540402835291602001916106f2565b820191906000526020600020905b8154815290600101906020018083116106d557829003601f168201915b505050505081525050826001836107099190612ec5565b8151811061071957610719612ede565b6020026020010181905250808061072f90612ef4565b91505061037f565b50919050565b6001602052816000526040600020818154811061075957600080fd5b600091825260209091206009909102018054600182015460028301546003840154600485015460058601546006870154600788018054979a509598506001600160a01b0394851697949093169591949093916107b490612e7b565b80601f01602080910402602001604051908101604052809291908181526020018280546107e090612e7b565b801561082d5780601f106108025761010080835404028352916020019161082d565b820191906000526020600020905b81548152906001019060200180831161081057829003601f168201915b5050506008909301549192505060ff1689565b6006546001600160a01b031633146108b25760405162461bcd60e51b815260206004820152602a60248201527f4f6e6c7920636f6e7472616374206f776e65722063616e2063616c6c207468696044820152693990333ab731ba34b7b760b11b60648201526084015b60405180910390fd5b6001600160a01b03818116600090815260026020526040902054166109115760405162461bcd60e51b815260206004820152601560248201527414dd185ad95a1bdb19195c881b9bdd08199bdd5b99605a1b60448201526064016108a9565b6001600160a01b03166000908152600260205260409020600301805461ff001916610100179055565b6109426125ba565b6001600160a01b03808316600090815260026020908152604091829020825160c08101909352805490931682526001830180549293929184019161098590612e7b565b80601f01602080910402602001604051908101604052809291908181526020018280546109b190612e7b565b80156109fe5780601f106109d3576101008083540402835291602001916109fe565b820191906000526020600020905b8154815290600101906020018083116109e157829003601f168201915b50505050508152602001600282018054610a1790612e7b565b80601f0160208091040260200160405190810160405280929190818152602001828054610a4390612e7b565b8015610a905780601f10610a6557610100808354040283529160200191610a90565b820191906000526020600020905b815481529060010190602001808311610a7357829003601f168201915b505050918352505060038281015460209092019160ff1690811115610ab757610ab7612650565b6003811115610ac857610ac8612650565b81526003820154610100900460ff161515602082015260049091015460409091015292915050565b600081815260036020908152604091829020805483518184028101840190945280845260609392830182828015610b5057602002820191906000526020600020905b81546001600160a01b03168152600190910190602001808311610b32575b50505050509050919050565b33600090815260026020526040902060030154610100900460ff16610b935760405162461bcd60e51b81526004016108a990612f0d565b60008581526020819052604090206003015485906001600160a01b0316331480610bfe575060008181526003602052604090208054339190610bd790600190612ec5565b81548110610be757610be7612ede565b6000918252602090912001546001600160a01b0316145b610c1a5760405162461bcd60e51b81526004016108a990612f5f565b6000868152602081905260408120549003610c475760405162461bcd60e51b81526004016108a990612fa9565b600086815260208190526040902060060154841115610ca05760405162461bcd60e51b8152602060048201526015602482015274496e73756666696369656e74207175616e7469747960581b60448201526064016108a9565b6001600160a01b038516600090815260026020526040902060030154610100900460ff16610d105760405162461bcd60e51b815260206004820152601a60248201527f526563697069656e74206d75737420626520766572696669656400000000000060448201526064016108a9565b6001600160a01b03851660009081526002602052604090206003015460ff166001816003811115610d4357610d43612650565b03610d71576000878152602081905260409020600a0180546002919060ff19166001835b0217905550610de3565b6002816003811115610d8557610d85612650565b03610dad576000878152602081905260409020600a0180546003919060ff1916600183610d67565b6003816003811115610dc157610dc1612650565b03610de3576000878152602081905260409020600a01805460ff191660041790555b600087815260036020908152604080832080546001810182559084528284200180546001600160a01b0319166001600160a01b038b161790558983529082905281206006018054879290610e38908490612ec5565b90915550506000878152602081905260409020600901849055610e6187338888888860016123e3565b856001600160a01b0316336001600160a01b0316887f516c8b339c132041f2a10d0e873c5eaf4944299c02b458d7491b7f7ac1574d2f88604051610ea791815260200190565b60405180910390a450505050505050565b60006020819052908152604090208054600182018054919291610eda90612e7b565b80601f0160208091040260200160405190810160405280929190818152602001828054610f0690612e7b565b8015610f535780601f10610f2857610100808354040283529160200191610f53565b820191906000526020600020905b815481529060010190602001808311610f3657829003601f168201915b505050505090806002018054610f6890612e7b565b80601f0160208091040260200160405190810160405280929190818152602001828054610f9490612e7b565b8015610fe15780601f10610fb657610100808354040283529160200191610fe1565b820191906000526020600020905b815481529060010190602001808311610fc457829003601f168201915b505050600384015460048501805494956001600160a01b0390921694919350915061100b90612e7b565b80601f016020809104026020016040519081016040528092919081815260200182805461103790612e7b565b80156110845780601f1061105957610100808354040283529160200191611084565b820191906000526020600020905b81548152906001019060200180831161106757829003601f168201915b5050505050908060050154908060060154908060070180546110a590612e7b565b80601f01602080910402602001604051908101604052809291908181526020018280546110d190612e7b565b801561111e5780601f106110f35761010080835404028352916020019161111e565b820191906000526020600020905b81548152906001019060200180831161110157829003601f168201915b5050505060088301546009840154600a850154600b86018054959660ff9485169693955093909116929161115190612e7b565b80601f016020809104026020016040519081016040528092919081815260200182805461117d90612e7b565b80156111ca5780601f1061119f576101008083540402835291602001916111ca565b820191906000526020600020905b8154815290600101906020018083116111ad57829003601f168201915b505050505090508c565b33600090815260026020526040902060030154610100900460ff1661120b5760405162461bcd60e51b81526004016108a990612f0d565b60008281526020819052604090206003015482906001600160a01b031633148061127657506000818152600360205260409020805433919061124f90600190612ec5565b8154811061125f5761125f612ede565b6000918252602090912001546001600160a01b0316145b6112925760405162461bcd60e51b81526004016108a990612f5f565b60008381526020819052604081205490036112bf5760405162461bcd60e51b81526004016108a990612fa9565b60008381526020818152604091829020600901849055905183815284917f945c1c4e99aa89f648fbfe3df471b916f719e16d960fcec0737d4d56bd69683891015b60405180910390a2505050565b606060016000838152602001908152602001600020805480602002602001604051908101604052809291908181526020016000905b828210156114935760008481526020908190206040805161012081018252600986029092018054835260018101549383019390935260028301546001600160a01b0390811691830191909152600383015416606082015260048201546080820152600582015460a0820152600682015460c082015260078201805491929160e0840191906113cf90612e7b565b80601f01602080910402602001604051908101604052809291908181526020018280546113fb90612e7b565b80156114485780601f1061141d57610100808354040283529160200191611448565b820191906000526020600020905b81548152906001019060200180831161142b57829003601f168201915b5050509183525050600882015460209091019060ff16600281111561146f5761146f612650565b600281111561148057611480612650565b8152505081526020019060010190611342565b505050509050919050565b336000908152600260205260409020546001600160a01b0316156115045760405162461bcd60e51b815260206004820152601e60248201527f5374616b65686f6c64657220616c72656164792072656769737465726564000060448201526064016108a9565b6040518060c00160405280336001600160a01b0316815260200184815260200183815260200182600381111561153c5761153c612650565b8152600060208083018290524260409384015233825260028152919020825181546001600160a01b0319166001600160a01b039091161781559082015160018201906115889082613028565b506040820151600282019061159d9082613028565b5060608201518160030160006101000a81548160ff021916908360038111156115c8576115c8612650565b021790555060808201516003820180549115156101000261ff001990921691909117905560a09091015160049091015560405133907f110b738ebb1be6a0003a04bc69dea2d42dce2ff6424f866e30a39749b1c245989061130090849087906130e8565b61163461253d565b600082815260208181526040918290208251610180810190935280548352600181018054919284019161166690612e7b565b80601f016020809104026020016040519081016040528092919081815260200182805461169290612e7b565b80156116df5780601f106116b4576101008083540402835291602001916116df565b820191906000526020600020905b8154815290600101906020018083116116c257829003601f168201915b505050505081526020016002820180546116f890612e7b565b80601f016020809104026020016040519081016040528092919081815260200182805461172490612e7b565b80156117715780601f1061174657610100808354040283529160200191611771565b820191906000526020600020905b81548152906001019060200180831161175457829003601f168201915b505050918352505060038201546001600160a01b031660208201526004820180546040909201916117a190612e7b565b80601f01602080910402602001604051908101604052809291908181526020018280546117cd90612e7b565b801561181a5780601f106117ef5761010080835404028352916020019161181a565b820191906000526020600020905b8154815290600101906020018083116117fd57829003601f168201915b50505050508152602001600582015481526020016006820154815260200160078201805461184790612e7b565b80601f016020809104026020016040519081016040528092919081815260200182805461187390612e7b565b80156118c05780601f10611895576101008083540402835291602001916118c0565b820191906000526020600020905b8154815290600101906020018083116118a357829003601f168201915b5050509183525050600882015460ff9081161515602083015260098301546040830152600a83015460609092019116600481111561190057611900612650565b600481111561191157611911612650565b8152602001600b8201805461192590612e7b565b80601f016020809104026020016040519081016040528092919081815260200182805461195190612e7b565b801561199e5780601f106119735761010080835404028352916020019161199e565b820191906000526020600020905b81548152906001019060200180831161198157829003601f168201915b5050505050815250509050919050565b600260205260009081526040902080546001820180546001600160a01b0390921692916119da90612e7b565b80601f0160208091040260200160405190810160405280929190818152602001828054611a0690612e7b565b8015611a535780601f10611a2857610100808354040283529160200191611a53565b820191906000526020600020905b815481529060010190602001808311611a3657829003601f168201915b505050505090806002018054611a6890612e7b565b80601f0160208091040260200160405190810160405280929190818152602001828054611a9490612e7b565b8015611ae15780601f10611ab657610100808354040283529160200191611ae1565b820191906000526020600020905b815481529060010190602001808311611ac457829003601f168201915b505050506003830154600490930154919260ff8082169361010090920416915086565b33600090815260026020526040902060030154610100900460ff16611b3b5760405162461bcd60e51b81526004016108a990612f0d565b60008281526020819052604090206003015482906001600160a01b0316331480611ba6575060008181526003602052604090208054339190611b7f90600190612ec5565b81548110611b8f57611b8f612ede565b6000918252602090912001546001600160a01b0316145b611bc25760405162461bcd60e51b81526004016108a990612f5f565b6000838152602081905260408120549003611bef5760405162461bcd60e51b81526004016108a990612fa9565b6000838152602081905260409020600701611c0a8382613028565b50827ff72ed4a2b7121d28d35e9fff41ce2b51851c62b79d5cee9fe9f369c0f3a1031b836040516113009190613110565b6060600060015b6004548111611c8f576000818152602081905260409020600301546001600160a01b03808616911603611c7d5781611c7981612ef4565b9250505b80611c8781612ef4565b915050611c42565b5060008167ffffffffffffffff811115611cab57611cab6129a4565b604051908082528060200260200182016040528015611ce457816020015b611cd161253d565b815260200190600190039081611cc95790505b509050600060015b60045481116120ca576000818152602081905260409020600301546001600160a01b038088169116036120b8576000818152602081815260409182902082516101808101909352805483526001810180549192840191611d4b90612e7b565b80601f0160208091040260200160405190810160405280929190818152602001828054611d7790612e7b565b8015611dc45780601f10611d9957610100808354040283529160200191611dc4565b820191906000526020600020905b815481529060010190602001808311611da757829003601f168201915b50505050508152602001600282018054611ddd90612e7b565b80601f0160208091040260200160405190810160405280929190818152602001828054611e0990612e7b565b8015611e565780601f10611e2b57610100808354040283529160200191611e56565b820191906000526020600020905b815481529060010190602001808311611e3957829003601f168201915b505050918352505060038201546001600160a01b03166020820152600482018054604090920191611e8690612e7b565b80601f0160208091040260200160405190810160405280929190818152602001828054611eb290612e7b565b8015611eff5780601f10611ed457610100808354040283529160200191611eff565b820191906000526020600020905b815481529060010190602001808311611ee257829003601f168201915b505050505081526020016005820154815260200160068201548152602001600782018054611f2c90612e7b565b80601f0160208091040260200160405190810160405280929190818152602001828054611f5890612e7b565b8015611fa55780601f10611f7a57610100808354040283529160200191611fa5565b820191906000526020600020905b815481529060010190602001808311611f8857829003601f168201915b5050509183525050600882015460ff9081161515602083015260098301546040830152600a830154606090920191166004811115611fe557611fe5612650565b6004811115611ff657611ff6612650565b8152602001600b8201805461200a90612e7b565b80601f016020809104026020016040519081016040528092919081815260200182805461203690612e7b565b80156120835780601f1061205857610100808354040283529160200191612083565b820191906000526020600020905b81548152906001019060200180831161206657829003601f168201915b50505050508152505083838151811061209e5761209e612ede565b602002602001018190525081806120b490612ef4565b9250505b806120c281612ef4565b915050611cec565b5090949350505050565b33600090815260026020526040902060030154610100900460ff1661210b5760405162461bcd60e51b81526004016108a990612f0d565b33600090815260026020526040812060039081015460ff169081111561213357612133612650565b1461218b5760405162461bcd60e51b815260206004820152602260248201527f4f6e6c79206661726d6572732063616e2072656769737465722070726f647563604482015261747360f01b60648201526084016108a9565b6004805490600061219b83612ef4565b91905055506040518061018001604052806004548152602001898152602001888152602001336001600160a01b0316815260200187815260200142815260200186815260200185815260200184151581526020018381526020016000600481111561220857612208612650565b81526020908101839052600454600090815280825260409020825181559082015160018201906122389082613028565b506040820151600282019061224d9082613028565b5060608201516003820180546001600160a01b0319166001600160a01b03909216919091179055608082015160048201906122889082613028565b5060a0820151600582015560c0820151600682015560e082015160078201906122b19082613028565b5061010082015160088201805491151560ff199283161790556101208301516009830155610140830151600a83018054919290911660018360048111156122fa576122fa612650565b0217905550610160820151600b8201906123149082613028565b5050600480546000908152600360209081526040822080546001810182559083529082200180546001600160a01b03191633908117909155915461235d93509188828b816123e3565b336001600160a01b03166004547f0760719a2bff712fd963b31a18f1f3c21651edaf3ce212d45e1d0e5145fdc7598a6040516123999190613110565b60405180910390a35050505050505050565b600360205281600052604060002081815481106123c757600080fd5b6000918252602090912001546001600160a01b03169150829050565b600580549060006123f383612ef4565b9190505550600160008881526020019081526020016000206040518061012001604052806005548152602001898152602001886001600160a01b03168152602001876001600160a01b0316815260200186815260200185815260200142815260200184815260200183600281111561246d5761246d612650565b905281546001818101845560009384526020938490208351600990930201918255928201519281019290925560408101516002830180546001600160a01b039283166001600160a01b03199182161790915560608301516003850180549190931691161790556080810151600483015560a0810151600583015560c0810151600683015560e081015190919060078201906125089082613028565b5061010082015160088201805460ff1916600183600281111561252d5761252d612650565b0217905550505050505050505050565b60405180610180016040528060008152602001606081526020016060815260200160006001600160a01b031681526020016060815260200160008152602001600081526020016060815260200160001515815260200160008152602001600060048111156125ad576125ad612650565b8152602001606081525090565b6040518060c0016040528060006001600160a01b031681526020016060815260200160608152602001600060038111156125f6576125f6612650565b815260006020820181905260409091015290565b6000815180845260005b8181101561263057602081850181015186830182015201612614565b506000602082860101526020601f19601f83011685010191505092915050565b634e487b7160e01b600052602160045260246000fd5b6005811061267657612676612650565b9052565b600061018082518452602083015181602086015261269a8286018261260a565b915050604083015184820360408601526126b4828261260a565b91505060608301516126d160608601826001600160a01b03169052565b50608083015184820360808601526126e9828261260a565b91505060a083015160a085015260c083015160c085015260e083015184820360e0860152612717828261260a565b9150506101008084015161272e8287018215159052565b505061012083810151908501526101408084015161274e82870182612666565b50506101608084015185830382870152612768838261260a565b9695505050505050565b6000602080830181845280855180835260408601915060408160051b870101925083870160005b828110156127c757603f198886030184526127b585835161267a565b94509285019290850190600101612799565b5092979650505050505050565b600080604083850312156127e757600080fd5b50508035926020909101359150565b6003811061267657612676612650565b60006101208b83528a602084015260018060a01b03808b166040850152808a166060850152508760808401528660a08401528560c08401528060e08401526128508184018661260a565b9150506128616101008301846127f6565b9a9950505050505050505050565b80356001600160a01b038116811461288657600080fd5b919050565b60006020828403121561289d57600080fd5b6128a68261286f565b9392505050565b6004811061267657612676612650565b602080825282516001600160a01b03168282015282015160c060408301526000906128eb60e084018261260a565b90506040840151601f19848303016060850152612908828261260a565b915050606084015161291d60808501826128ad565b506080840151151560a084015260a084015160c08401528091505092915050565b60006020828403121561295057600080fd5b5035919050565b6020808252825182820181905260009190848201906040850190845b818110156129985783516001600160a01b031683529284019291840191600101612973565b50909695505050505050565b634e487b7160e01b600052604160045260246000fd5b600082601f8301126129cb57600080fd5b813567ffffffffffffffff808211156129e6576129e66129a4565b604051601f8301601f19908116603f01168101908282118183101715612a0e57612a0e6129a4565b81604052838152866020858801011115612a2757600080fd5b836020870160208301376000602085830101528094505050505092915050565b600080600080600060a08688031215612a5f57600080fd5b85359450612a6f6020870161286f565b93506040860135925060608601359150608086013567ffffffffffffffff811115612a9957600080fd5b612aa5888289016129ba565b9150509295509295909350565b60006101808e8352806020840152612acc8184018f61260a565b90508281036040840152612ae0818e61260a565b6001600160a01b038d16606085015283810360808501529050612b03818c61260a565b90508960a08401528860c084015282810360e0840152612b23818961260a565b871515610100850152905085610120840152612b43610140840186612666565b828103610160840152612b56818561260a565b9f9e505050505050505050505050505050565b60006020808301818452808551808352604092508286019150828160051b87010184880160005b83811015612c3757603f198984030185528151805184528781015188850152868101516001600160a01b0390811688860152606080830151909116908501526080808201519085015260a0808201519085015260c0808201519085015260e0808201516101208287018190529190612c0a8388018261260a565b92505050610100808301519250612c23818701846127f6565b509588019593505090860190600101612b90565b509098975050505050505050565b600080600060608486031215612c5a57600080fd5b833567ffffffffffffffff80821115612c7257600080fd5b612c7e878388016129ba565b94506020860135915080821115612c9457600080fd5b50612ca1868287016129ba565b925050604084013560048110612cb657600080fd5b809150509250925092565b6020815260006128a6602083018461267a565b6001600160a01b038716815260c060208201819052600090612cf89083018861260a565b8281036040840152612d0a818861260a565b915050612d1a60608301866128ad565b921515608082015260a00152949350505050565b60008060408385031215612d4157600080fd5b82359150602083013567ffffffffffffffff811115612d5f57600080fd5b612d6b858286016129ba565b9150509250929050565b8035801515811461288657600080fd5b600080600080600080600080610100898b031215612da257600080fd5b883567ffffffffffffffff80821115612dba57600080fd5b612dc68c838d016129ba565b995060208b0135915080821115612ddc57600080fd5b612de88c838d016129ba565b985060408b0135915080821115612dfe57600080fd5b612e0a8c838d016129ba565b975060608b0135965060808b0135915080821115612e2757600080fd5b612e338c838d016129ba565b9550612e4160a08c01612d75565b945060c08b0135935060e08b0135915080821115612e5e57600080fd5b50612e6b8b828c016129ba565b9150509295985092959890939650565b600181811c90821680612e8f57607f821691505b60208210810361073757634e487b7160e01b600052602260045260246000fd5b634e487b7160e01b600052601160045260246000fd5b81810381811115612ed857612ed8612eaf565b92915050565b634e487b7160e01b600052603260045260246000fd5b600060018201612f0657612f06612eaf565b5060010190565b60208082526032908201527f4f6e6c79207665726966696564207374616b65686f6c646572732063616e207060408201527132b93337b936903a3434b99030b1ba34b7b760711b606082015260800190565b6020808252602a908201527f4f6e6c792070726f64756374206f776e65722063616e20706572666f726d20746040820152693434b99030b1ba34b7b760b11b606082015260800190565b602080825260169082015275141c9bd91d58dd08191bd95cc81b9bdd08195e1a5cdd60521b604082015260600190565b601f82111561302357600081815260208120601f850160051c810160208610156130005750805b601f850160051c820191505b8181101561301f5782815560010161300c565b5050505b505050565b815167ffffffffffffffff811115613042576130426129a4565b613056816130508454612e7b565b84612fd9565b602080601f83116001811461308b57600084156130735750858301515b600019600386901b1c1916600185901b17855561301f565b600085815260208120601f198616915b828110156130ba5788860151825594840194600190910190840161309b565b50858210156130d85787850151600019600388901b60f8161c191681555b5050505050600190811b01905550565b6130f281846128ad565b604060208201526000613108604083018461260a565b949350505050565b6020815260006128a6602083018461260a56fea26469706673582212208db41c6e780a027edf1e2e2cb06e08a30ee2181fbdfcfaaf5269b44d804f72d264736f6c63430008130033",
  "linkReferences": {},
  "deployedLinkReferences": {}
}